{
  "address": "0x1F5373da283627a06F39AFCFAb5a5CF279A0883A",
  "abi": [
    {
      "inputs": [
        {
          "internalType": "address",
          "name": "linkAddressm",
          "type": "address"
        },
        {
          "internalType": "address",
          "name": "wrapperAddress",
          "type": "address"
        },
        {
          "internalType": "address",
          "name": "uniswapRouterAddress",
          "type": "address"
        },
        {
          "internalType": "address",
          "name": "referee",
          "type": "address"
        },
        {
          "internalType": "uint256",
          "name": "entranceFee",
          "type": "uint256"
        },
        {
          "internalType": "uint256",
          "name": "inscriptionLimit",
          "type": "uint256"
        },
        {
          "internalType": "uint256",
          "name": "gameDuration",
          "type": "uint256"
        }
      ],
      "stateMutability": "nonpayable",
      "type": "constructor"
    },
    {
      "inputs": [],
      "name": "MouseGame__OnlyReferee",
      "type": "error"
    },
    {
      "inputs": [],
      "name": "MouseGame__alreadyRegistered",
      "type": "error"
    },
    {
      "inputs": [],
      "name": "MouseGame__gameInProgress",
      "type": "error"
    },
    {
      "inputs": [],
      "name": "MouseGame__inscriptionClose",
      "type": "error"
    },
    {
      "inputs": [],
      "name": "MouseGame__notReadyToStart",
      "type": "error"
    },
    {
      "inputs": [],
      "name": "MouseGame__overpaid",
      "type": "error"
    },
    {
      "inputs": [],
      "name": "MouseGame__trasactionFail",
      "type": "error"
    },
    {
      "inputs": [],
      "name": "MouseGame__tryAgainLater",
      "type": "error"
    },
    {
      "inputs": [],
      "name": "MouseGame__underfunded",
      "type": "error"
    },
    {
      "inputs": [],
      "name": "MouseGame__underpayment",
      "type": "error"
    },
    {
      "inputs": [],
      "name": "RandomNumber__insufficientFunds",
      "type": "error"
    },
    {
      "inputs": [
        {
          "internalType": "uint256",
          "name": "balance",
          "type": "uint256"
        },
        {
          "internalType": "uint256",
          "name": "necessaryAmount",
          "type": "uint256"
        }
      ],
      "name": "SwapEthToLink__insufficientFunds",
      "type": "error"
    },
    {
      "anonymous": false,
      "inputs": [
        {
          "indexed": false,
          "internalType": "uint256",
          "name": "needAmount",
          "type": "uint256"
        },
        {
          "indexed": false,
          "internalType": "uint256",
          "name": "linkReceived",
          "type": "uint256"
        },
        {
          "indexed": false,
          "internalType": "uint256",
          "name": "ethSpended",
          "type": "uint256"
        }
      ],
      "name": "Converted",
      "type": "event"
    },
    {
      "anonymous": false,
      "inputs": [
        {
          "indexed": true,
          "internalType": "address",
          "name": "previousOwner",
          "type": "address"
        },
        {
          "indexed": true,
          "internalType": "address",
          "name": "newOwner",
          "type": "address"
        }
      ],
      "name": "OwnershipTransferred",
      "type": "event"
    },
    {
      "anonymous": false,
      "inputs": [
        {
          "indexed": true,
          "internalType": "address",
          "name": "player",
          "type": "address"
        },
        {
          "indexed": false,
          "internalType": "uint256",
          "name": "playerPrize",
          "type": "uint256"
        }
      ],
      "name": "gameEnded",
      "type": "event"
    },
    {
      "anonymous": false,
      "inputs": [],
      "name": "gameReverted",
      "type": "event"
    },
    {
      "anonymous": false,
      "inputs": [
        {
          "indexed": true,
          "internalType": "uint256",
          "name": "time",
          "type": "uint256"
        },
        {
          "indexed": false,
          "internalType": "address",
          "name": "firstMouseOwner",
          "type": "address"
        }
      ],
      "name": "gameStarted",
      "type": "event"
    },
    {
      "anonymous": false,
      "inputs": [
        {
          "indexed": false,
          "internalType": "address",
          "name": "winner",
          "type": "address"
        }
      ],
      "name": "gameWinner",
      "type": "event"
    },
    {
      "anonymous": false,
      "inputs": [
        {
          "indexed": true,
          "internalType": "uint256",
          "name": "time",
          "type": "uint256"
        },
        {
          "indexed": false,
          "internalType": "address",
          "name": "player",
          "type": "address"
        }
      ],
      "name": "playerInscribed",
      "type": "event"
    },
    {
      "anonymous": false,
      "inputs": [
        {
          "indexed": true,
          "internalType": "address",
          "name": "player",
          "type": "address"
        },
        {
          "indexed": false,
          "internalType": "uint256",
          "name": "prize",
          "type": "uint256"
        },
        {
          "indexed": false,
          "internalType": "uint256",
          "name": "eth",
          "type": "uint256"
        }
      ],
      "name": "prizeSwaped",
      "type": "event"
    },
    {
      "anonymous": false,
      "inputs": [
        {
          "indexed": false,
          "internalType": "uint256",
          "name": "amount",
          "type": "uint256"
        }
      ],
      "name": "refereeWithdrawEvent",
      "type": "event"
    },
    {
      "anonymous": false,
      "inputs": [
        {
          "indexed": false,
          "internalType": "uint256",
          "name": "requestId",
          "type": "uint256"
        }
      ],
      "name": "requestRandomPlayer",
      "type": "event"
    },
    {
      "inputs": [],
      "name": "endGame",
      "outputs": [],
      "stateMutability": "nonpayable",
      "type": "function"
    },
    {
      "inputs": [],
      "name": "getEntraceFee",
      "outputs": [
        {
          "internalType": "uint256",
          "name": "entranceFee",
          "type": "uint256"
        }
      ],
      "stateMutability": "view",
      "type": "function"
    },
    {
      "inputs": [],
      "name": "getGameBalance",
      "outputs": [
        {
          "internalType": "uint256",
          "name": "",
          "type": "uint256"
        }
      ],
      "stateMutability": "view",
      "type": "function"
    },
    {
      "inputs": [],
      "name": "getGameDuration",
      "outputs": [
        {
          "internalType": "uint256",
          "name": "gameDuration",
          "type": "uint256"
        }
      ],
      "stateMutability": "view",
      "type": "function"
    },
    {
      "inputs": [],
      "name": "getGameTimeLeft",
      "outputs": [
        {
          "internalType": "uint256",
          "name": "",
          "type": "uint256"
        }
      ],
      "stateMutability": "view",
      "type": "function"
    },
    {
      "inputs": [],
      "name": "getInscriptionLimit",
      "outputs": [
        {
          "internalType": "uint256",
          "name": "inscriptionLimit",
          "type": "uint256"
        }
      ],
      "stateMutability": "view",
      "type": "function"
    },
    {
      "inputs": [],
      "name": "getInscriptionTimeLeft",
      "outputs": [
        {
          "internalType": "uint256",
          "name": "",
          "type": "uint256"
        }
      ],
      "stateMutability": "view",
      "type": "function"
    },
    {
      "inputs": [],
      "name": "getPrizeTokenValue",
      "outputs": [
        {
          "internalType": "uint256",
          "name": "ethAmount",
          "type": "uint256"
        }
      ],
      "stateMutability": "view",
      "type": "function"
    },
    {
      "inputs": [],
      "name": "getRefereeBalance",
      "outputs": [
        {
          "internalType": "uint256",
          "name": "",
          "type": "uint256"
        }
      ],
      "stateMutability": "view",
      "type": "function"
    },
    {
      "inputs": [],
      "name": "i_referee",
      "outputs": [
        {
          "internalType": "address",
          "name": "",
          "type": "address"
        }
      ],
      "stateMutability": "view",
      "type": "function"
    },
    {
      "inputs": [],
      "name": "inscribe",
      "outputs": [],
      "stateMutability": "payable",
      "type": "function"
    },
    {
      "inputs": [
        {
          "internalType": "address",
          "name": "player",
          "type": "address"
        }
      ],
      "name": "isRegistered",
      "outputs": [
        {
          "internalType": "bool",
          "name": "",
          "type": "bool"
        }
      ],
      "stateMutability": "view",
      "type": "function"
    },
    {
      "inputs": [],
      "name": "owner",
      "outputs": [
        {
          "internalType": "address",
          "name": "",
          "type": "address"
        }
      ],
      "stateMutability": "view",
      "type": "function"
    },
    {
      "inputs": [
        {
          "internalType": "uint256",
          "name": "amount",
          "type": "uint256"
        }
      ],
      "name": "prizeToEth",
      "outputs": [],
      "stateMutability": "payable",
      "type": "function"
    },
    {
      "inputs": [
        {
          "internalType": "uint256",
          "name": "_requestId",
          "type": "uint256"
        },
        {
          "internalType": "uint256[]",
          "name": "_randomWords",
          "type": "uint256[]"
        }
      ],
      "name": "rawFulfillRandomWords",
      "outputs": [],
      "stateMutability": "nonpayable",
      "type": "function"
    },
    {
      "inputs": [],
      "name": "refereeWithdraw",
      "outputs": [],
      "stateMutability": "payable",
      "type": "function"
    },
    {
      "inputs": [],
      "name": "renounceOwnership",
      "outputs": [],
      "stateMutability": "nonpayable",
      "type": "function"
    },
    {
      "inputs": [
        {
          "internalType": "address",
          "name": "mouseNftAddress",
          "type": "address"
        },
        {
          "internalType": "address",
          "name": "cheeseTokenAddress",
          "type": "address"
        },
        {
          "internalType": "address",
          "name": "prizeTokenAddress",
          "type": "address"
        }
      ],
      "name": "setContracts",
      "outputs": [],
      "stateMutability": "nonpayable",
      "type": "function"
    },
    {
      "inputs": [
        {
          "internalType": "uint256",
          "name": "newEntraceFee",
          "type": "uint256"
        }
      ],
      "name": "setEntraceFee",
      "outputs": [],
      "stateMutability": "nonpayable",
      "type": "function"
    },
    {
      "inputs": [],
      "name": "startGame",
      "outputs": [],
      "stateMutability": "nonpayable",
      "type": "function"
    },
    {
      "inputs": [
        {
          "internalType": "address",
          "name": "newOwner",
          "type": "address"
        }
      ],
      "name": "transferOwnership",
      "outputs": [],
      "stateMutability": "nonpayable",
      "type": "function"
    },
    {
      "stateMutability": "payable",
      "type": "receive"
    }
  ],
  "transactionHash": "0xf3ee579d56897c11f3674469de5dcba072092445bc435939c98b37d626906bd7",
  "args": [
    "0x326C977E6efc84E512bB9C30f76E30c160eD06FB",
    "0x708701a1DfF4f478de54383E49a627eD4852C816",
    "0x7a250d5630B4cF539739dF2C5dAcb4c659F2488D",
    "0xB3f467ea508529e7BE0780373C3F87e22688c927",
    "10000000000000000",
    300,
    600
  ],
  "numDeployments": 1,
  "solcInputHash": "73ad4a053ef78235dbfef65b03495466",
  "bytecode": "0x61014060405260006001553480156200001757600080fd5b5060405162003d9238038062003d9283398181016040528101906200003d919062000314565b868686808384848173ffffffffffffffffffffffffffffffffffffffff1660808173ffffffffffffffffffffffffffffffffffffffff16815250508073ffffffffffffffffffffffffffffffffffffffff1660a08173ffffffffffffffffffffffffffffffffffffffff16815250505050816000806101000a81548173ffffffffffffffffffffffffffffffffffffffff021916908373ffffffffffffffffffffffffffffffffffffffff1602179055508073ffffffffffffffffffffffffffffffffffffffff1660c08173ffffffffffffffffffffffffffffffffffffffff16815250505050505050620001476200013b620001a160201b60201c565b620001a960201b60201c565b8373ffffffffffffffffffffffffffffffffffffffff166101208173ffffffffffffffffffffffffffffffffffffffff1681525050826003819055508160e0818152505080610100818152505050505050505050620003c7565b600033905090565b6000600260009054906101000a900473ffffffffffffffffffffffffffffffffffffffff16905081600260006101000a81548173ffffffffffffffffffffffffffffffffffffffff021916908373ffffffffffffffffffffffffffffffffffffffff1602179055508173ffffffffffffffffffffffffffffffffffffffff168173ffffffffffffffffffffffffffffffffffffffff167f8be0079c531659141344cd1fd0a4f28419497f9722a3daafe3b4186f6b6457e060405160405180910390a35050565b600080fd5b600073ffffffffffffffffffffffffffffffffffffffff82169050919050565b6000620002a18262000274565b9050919050565b620002b38162000294565b8114620002bf57600080fd5b50565b600081519050620002d381620002a8565b92915050565b6000819050919050565b620002ee81620002d9565b8114620002fa57600080fd5b50565b6000815190506200030e81620002e3565b92915050565b600080600080600080600060e0888a0312156200033657620003356200026f565b5b6000620003468a828b01620002c2565b9750506020620003598a828b01620002c2565b96505060406200036c8a828b01620002c2565b95505060606200037f8a828b01620002c2565b9450506080620003928a828b01620002fd565b93505060a0620003a58a828b01620002fd565b92505060c0620003b88a828b01620002fd565b91505092959891949750929550565b60805160a05160c05160e05161010051610120516138fd620004956000396000818161056701528181610b9d01528181610cb901528181610d4201528181610dcb01528181610e5601528181610eba015281816111e60152611329015260008181610b0601528181610da501528181611a350152611a670152600081816104670152818161049901528181610ad5015261120c01526000612a820152600081816104cb0152818161211801528181612686015281816126a701526127c70152600061264a01526138fd6000f3fe60806040526004361061012e5760003560e01c8063c574d156116100ab578063d65ab5f21161006f578063d65ab5f214610384578063de52f07d1461039b578063ea064f8b146103a5578063eed7c755146103ce578063f2fde38b146103ea578063fc9de59e1461041357610135565b8063c574d156146102ad578063ca767ba7146102d8578063cbad332c14610303578063cc331f9e1461032e578063ce147cf31461035957610135565b806378e9ae60116100f257806378e9ae60146101e7578063863450c0146102125780638da5cb5b1461021c578063b3066d4914610247578063c3c5a5471461027057610135565b80631efa7f6f1461013a5780631fe543e3146101655780636cbc2ded1461018e578063715018a6146101a557806372292b50146101bc57610135565b3661013557005b600080fd5b34801561014657600080fd5b5061014f61043e565b60405161015c9190612b4d565b60405180910390f35b34801561017157600080fd5b5061018c60048036038101906101879190612d01565b6104c9565b005b34801561019a57600080fd5b506101a3610565565b005b3480156101b157600080fd5b506101ba610ca1565b005b3480156101c857600080fd5b506101d1610cb5565b6040516101de9190612b4d565b60405180910390f35b3480156101f357600080fd5b506101fc610da1565b6040516102099190612b4d565b60405180910390f35b61021a610dc9565b005b34801561022857600080fd5b50610231610ff5565b60405161023e9190612d9e565b60405180910390f35b34801561025357600080fd5b5061026e60048036038101906102699190612de5565b61101f565b005b34801561027c57600080fd5b5061029760048036038101906102929190612e38565b6110ef565b6040516102a49190612e80565b60405180910390f35b3480156102b957600080fd5b506102c261119d565b6040516102cf9190612b4d565b60405180910390f35b3480156102e457600080fd5b506102ed6111e4565b6040516102fa9190612d9e565b60405180910390f35b34801561030f57600080fd5b50610318611208565b6040516103259190612b4d565b60405180910390f35b34801561033a57600080fd5b50610343611230565b6040516103509190612b4d565b60405180910390f35b34801561036557600080fd5b5061036e61131d565b60405161037b9190612b4d565b60405180910390f35b34801561039057600080fd5b50610399611327565b005b6103a3611493565b005b3480156103b157600080fd5b506103cc60048036038101906103c79190612e9b565b6116ef565b005b6103e860048036038101906103e39190612e9b565b611701565b005b3480156103f657600080fd5b50610411600480360381019061040c9190612e38565b611989565b005b34801561041f57600080fd5b50610428611a0c565b6040516104359190612b4d565b60405180910390f35b600080600554036104535761270f90506104c6565b6000600554426104639190612ef7565b90507f000000000000000000000000000000000000000000000000000000000000000081106104965760009150506104c6565b807f00000000000000000000000000000000000000000000000000000000000000006104c29190612ef7565b9150505b90565b7f000000000000000000000000000000000000000000000000000000000000000073ffffffffffffffffffffffffffffffffffffffff163373ffffffffffffffffffffffffffffffffffffffff1614610557576040517f08c379a000000000000000000000000000000000000000000000000000000000815260040161054e90612f88565b60405180910390fd5b6105618282611a97565b5050565b7f000000000000000000000000000000000000000000000000000000000000000073ffffffffffffffffffffffffffffffffffffffff163373ffffffffffffffffffffffffffffffffffffffff16146105ea576040517f5264f50f00000000000000000000000000000000000000000000000000000000815260040160405180910390fd5b60006105f4611a0c565b111561062c576040517f52ee1a7c00000000000000000000000000000000000000000000000000000000815260040160405180910390fd5b6000604051806040016040528060008152602001600073ffffffffffffffffffffffffffffffffffffffff16815250905060005b6004805490508110156108b0576000600460018154811061068457610683612fa8565b5b9060005260206000200160009054906101000a900473ffffffffffffffffffffffffffffffffffffffff1690506000600860009054906101000a900473ffffffffffffffffffffffffffffffffffffffff1673ffffffffffffffffffffffffffffffffffffffff166370a08231836040518263ffffffff1660e01b815260040161070e9190612d9e565b602060405180830381865afa15801561072b573d6000803e3d6000fd5b505050506040513d601f19601f8201168201806040525081019061074f9190612fec565b905080846000015110156107a05781846020019073ffffffffffffffffffffffffffffffffffffffff16908173ffffffffffffffffffffffffffffffffffffffff1681525050808460000181815250505b600860009054906101000a900473ffffffffffffffffffffffffffffffffffffffff1673ffffffffffffffffffffffffffffffffffffffff166323b872dd8330846040518463ffffffff1660e01b81526004016107ff93929190613019565b6020604051808303816000875af115801561081e573d6000803e3d6000fd5b505050506040513d601f19601f82011682018060405250810190610842919061307c565b5061084d8282611c62565b8173ffffffffffffffffffffffffffffffffffffffff167f879e995d9c78241f7749475e019e40011862106219771811deb4260a68510deb826040516108939190612b4d565b60405180910390a2505080806108a8906130a9565b915050610660565b506000600860009054906101000a900473ffffffffffffffffffffffffffffffffffffffff1673ffffffffffffffffffffffffffffffffffffffff166370a08231600a60009054906101000a900473ffffffffffffffffffffffffffffffffffffffff166040518263ffffffff1660e01b81526004016109309190612d9e565b602060405180830381865afa15801561094d573d6000803e3d6000fd5b505050506040513d601f19601f820116820180604052508101906109719190612fec565b9050600860009054906101000a900473ffffffffffffffffffffffffffffffffffffffff1673ffffffffffffffffffffffffffffffffffffffff166323b872dd600a60009054906101000a900473ffffffffffffffffffffffffffffffffffffffff1630846040518463ffffffff1660e01b81526004016109f493929190613019565b6020604051808303816000875af1158015610a13573d6000803e3d6000fd5b505050506040513d601f19601f82011682018060405250810190610a37919061307c565b50610a46826020015182611c62565b600a60009054906101000a900473ffffffffffffffffffffffffffffffffffffffff1673ffffffffffffffffffffffffffffffffffffffff166344df8e706040518163ffffffff1660e01b8152600401600060405180830381600087803b158015610ab057600080fd5b505af1158015610ac4573d6000803e3d6000fd5b505050506000610af96006546005547f0000000000000000000000000000000000000000000000000000000000000000611cf5565b90506000610b2a426006547f0000000000000000000000000000000000000000000000000000000000000000611cf5565b90506000603c8284610b3c91906130f1565b610b469190613154565b9050600060058210610b5b5760009050610b6a565b8181610b679190612ef7565b90505b600060644783610b7a9190613185565b610b849190613154565b905060008147610b949190612ef7565b905081600760007f000000000000000000000000000000000000000000000000000000000000000073ffffffffffffffffffffffffffffffffffffffff1673ffffffffffffffffffffffffffffffffffffffff1681526020019081526020016000208190555080600760003073ffffffffffffffffffffffffffffffffffffffff1673ffffffffffffffffffffffffffffffffffffffff168152602001908152602001600020819055506000600681905550600060058190555060046000610c5c9190612af6565b7f88553234c25b33b828f518d5b99681ee43f214d8e7a318395da138471ad4b0a38860200151604051610c8f9190612d9e565b60405180910390a15050505050505050565b610ca9611d54565b610cb36000611dd2565b565b60007f000000000000000000000000000000000000000000000000000000000000000073ffffffffffffffffffffffffffffffffffffffff163373ffffffffffffffffffffffffffffffffffffffff1614610d3c576040517f5264f50f00000000000000000000000000000000000000000000000000000000815260040160405180910390fd5b600760007f000000000000000000000000000000000000000000000000000000000000000073ffffffffffffffffffffffffffffffffffffffff1673ffffffffffffffffffffffffffffffffffffffff16815260200190815260200160002054905090565b60007f0000000000000000000000000000000000000000000000000000000000000000905090565b7f000000000000000000000000000000000000000000000000000000000000000073ffffffffffffffffffffffffffffffffffffffff163373ffffffffffffffffffffffffffffffffffffffff1614610e4e576040517f5264f50f00000000000000000000000000000000000000000000000000000000815260040160405180910390fd5b6000600760007f000000000000000000000000000000000000000000000000000000000000000073ffffffffffffffffffffffffffffffffffffffff1673ffffffffffffffffffffffffffffffffffffffff1681526020019081526020016000205490506000600760007f000000000000000000000000000000000000000000000000000000000000000073ffffffffffffffffffffffffffffffffffffffff1673ffffffffffffffffffffffffffffffffffffffff1681526020019081526020016000208190555060003373ffffffffffffffffffffffffffffffffffffffff1682604051610f3d906131f8565b60006040518083038185875af1925050503d8060008114610f7a576040519150601f19603f3d011682016040523d82523d6000602084013e610f7f565b606091505b5050905080610fba576040517fcc96080c00000000000000000000000000000000000000000000000000000000815260040160405180910390fd5b7f42eb2d8d1917c0a04dcf7609963d06660a5c73a3d879fdfaee39a3137fd2ee6482604051610fe99190612b4d565b60405180910390a15050565b6000600260009054906101000a900473ffffffffffffffffffffffffffffffffffffffff16905090565b611027611d54565b82600a60006101000a81548173ffffffffffffffffffffffffffffffffffffffff021916908373ffffffffffffffffffffffffffffffffffffffff16021790555081600860006101000a81548173ffffffffffffffffffffffffffffffffffffffff021916908373ffffffffffffffffffffffffffffffffffffffff16021790555080600960006101000a81548173ffffffffffffffffffffffffffffffffffffffff021916908373ffffffffffffffffffffffffffffffffffffffff160217905550505050565b600080600090505b600480549050811015611192578273ffffffffffffffffffffffffffffffffffffffff166004828154811061112f5761112e612fa8565b5b9060005260206000200160009054906101000a900473ffffffffffffffffffffffffffffffffffffffff1673ffffffffffffffffffffffffffffffffffffffff160361117f576001915050611198565b808061118a906130a9565b9150506110f7565b50600090505b919050565b6000600760003073ffffffffffffffffffffffffffffffffffffffff1673ffffffffffffffffffffffffffffffffffffffff16815260200190815260200160002054905090565b7f000000000000000000000000000000000000000000000000000000000000000081565b60007f0000000000000000000000000000000000000000000000000000000000000000905090565b600080600960009054906101000a900473ffffffffffffffffffffffffffffffffffffffff1673ffffffffffffffffffffffffffffffffffffffff166318160ddd6040518163ffffffff1660e01b8152600401602060405180830381865afa1580156112a0573d6000803e3d6000fd5b505050506040513d601f19601f820116820180604052508101906112c49190612fec565b90506000600760003073ffffffffffffffffffffffffffffffffffffffff1673ffffffffffffffffffffffffffffffffffffffff16815260200190815260200160002054905081816113169190613154565b9250505090565b6000600354905090565b7f000000000000000000000000000000000000000000000000000000000000000073ffffffffffffffffffffffffffffffffffffffff163373ffffffffffffffffffffffffffffffffffffffff16146113ac576040517f5264f50f00000000000000000000000000000000000000000000000000000000815260040160405180910390fd5b60006113b661043e565b11156113ee576040517fbb1f94c300000000000000000000000000000000000000000000000000000000815260040160405180910390fd5b61270f6113f9611a0c565b1015611431576040517f52ee1a7c00000000000000000000000000000000000000000000000000000000815260040160405180910390fd5b6003600480549050101561144c57611447611e98565b611491565b6000611456612113565b90507f4ca0a6589f3c5154169bd28ef0fa5c3a4d7a5d60c9aa3064502370c4fb4c1b3c816040516114879190612b4d565b60405180910390a1505b565b600061149d61043e565b14806114af5750600a60048054905010155b156114e6576040517f0cd80b1100000000000000000000000000000000000000000000000000000000815260040160405180910390fd5b600354341015611522576040517fc64e595800000000000000000000000000000000000000000000000000000000815260040160405180910390fd5b60035434111561155e576040517f580e1c9700000000000000000000000000000000000000000000000000000000815260040160405180910390fd5b611567336110ef565b1561159e576040517f664952e200000000000000000000000000000000000000000000000000000000815260040160405180910390fd5b6000600554036115b057426005819055505b6004339080600181540180825580915050600190039060005260206000200160009091909190916101000a81548173ffffffffffffffffffffffffffffffffffffffff021916908373ffffffffffffffffffffffffffffffffffffffff160217905550600860009054906101000a900473ffffffffffffffffffffffffffffffffffffffff1673ffffffffffffffffffffffffffffffffffffffff1663a9059cbb3360f06040518363ffffffff1660e01b815260040161167192919061320d565b6020604051808303816000875af1158015611690573d6000803e3d6000fd5b505050506040513d601f19601f820116820180604052508101906116b4919061307c565b50427f45820c6663936a31a26896bfcf4a7fbed9b9951700143ecbed18f20aef5f0fef336040516116e59190612d9e565b60405180910390a2565b6116f7611d54565b8060038190555050565b6000600960009054906101000a900473ffffffffffffffffffffffffffffffffffffffff1673ffffffffffffffffffffffffffffffffffffffff166370a08231336040518263ffffffff1660e01b815260040161175e9190612d9e565b602060405180830381865afa15801561177b573d6000803e3d6000fd5b505050506040513d601f19601f8201168201806040525081019061179f9190612fec565b9050808211156117db576040517f975ca34d00000000000000000000000000000000000000000000000000000000815260040160405180910390fd5b6117e53383612237565b60006117ef611230565b9050600081846117ff9190613185565b905080600760003073ffffffffffffffffffffffffffffffffffffffff1673ffffffffffffffffffffffffffffffffffffffff1681526020019081526020016000205461184c9190612ef7565b600760003073ffffffffffffffffffffffffffffffffffffffff1673ffffffffffffffffffffffffffffffffffffffff1681526020019081526020016000208190555060003373ffffffffffffffffffffffffffffffffffffffff16826040516118b5906131f8565b60006040518083038185875af1925050503d80600081146118f2576040519150601f19603f3d011682016040523d82523d6000602084013e6118f7565b606091505b5050905080611932576040517fcc96080c00000000000000000000000000000000000000000000000000000000815260040160405180910390fd5b3373ffffffffffffffffffffffffffffffffffffffff167fb6a63d07b5279af2516badc8054f6c7385f0ad403d48de02dfec64f5ffb0645d868460405161197a929190613236565b60405180910390a25050505050565b611991611d54565b600073ffffffffffffffffffffffffffffffffffffffff168173ffffffffffffffffffffffffffffffffffffffff1603611a00576040517f08c379a00000000000000000000000000000000000000000000000000000000081526004016119f7906132d1565b60405180910390fd5b611a0981611dd2565b50565b60008060065403611a215761270f9050611a94565b600060065442611a319190612ef7565b90507f00000000000000000000000000000000000000000000000000000000000000008110611a64576000915050611a94565b807f0000000000000000000000000000000000000000000000000000000000000000611a909190612ef7565b9150505b90565b600060048054905082600081518110611ab357611ab2612fa8565b5b6020026020010151611ac591906132f1565b9050611ad0816122ca565b600060048281548110611ae657611ae5612fa8565b5b9060005260206000200160009054906101000a900473ffffffffffffffffffffffffffffffffffffffff169050611b526040518060400160405280601081526020017f6d6f7573654f776e6572496e6465783a0000000000000000000000000000000081525083612363565b600a60009054906101000a900473ffffffffffffffffffffffffffffffffffffffff1673ffffffffffffffffffffffffffffffffffffffff16636a627842826040518263ffffffff1660e01b8152600401611bad9190612d9e565b600060405180830381600087803b158015611bc757600080fd5b505af1158015611bdb573d6000803e3d6000fd5b50505050611c1d6040518060400160405280600681526020017f6d696e74656400000000000000000000000000000000000000000000000000008152506123ff565b42600681905550427fde0f3dad26b6b587986a7d83792e0a17078cc2b50d7eb1655ef3d3771e10716a82604051611c549190612d9e565b60405180910390a250505050565b600960009054906101000a900473ffffffffffffffffffffffffffffffffffffffff1673ffffffffffffffffffffffffffffffffffffffff166340c10f1983836040518363ffffffff1660e01b8152600401611cbf92919061320d565b600060405180830381600087803b158015611cd957600080fd5b505af1158015611ced573d6000803e3d6000fd5b505050505050565b600080828486611d05919061332c565b611d0f919061332c565b90506000811215611d49577fffffffffffffffffffffffffffffffffffffffffffffffffffffffffffffffff81611d46919061336f565b90505b809150509392505050565b611d5c612498565b73ffffffffffffffffffffffffffffffffffffffff16611d7a610ff5565b73ffffffffffffffffffffffffffffffffffffffff1614611dd0576040517f08c379a0000000000000000000000000000000000000000000000000000000008152600401611dc790613433565b60405180910390fd5b565b6000600260009054906101000a900473ffffffffffffffffffffffffffffffffffffffff16905081600260006101000a81548173ffffffffffffffffffffffffffffffffffffffff021916908373ffffffffffffffffffffffffffffffffffffffff1602179055508173ffffffffffffffffffffffffffffffffffffffff168173ffffffffffffffffffffffffffffffffffffffff167f8be0079c531659141344cd1fd0a4f28419497f9722a3daafe3b4186f6b6457e060405160405180910390a35050565b60005b6004805490508110156120dc57600060048281548110611ebe57611ebd612fa8565b5b9060005260206000200160009054906101000a900473ffffffffffffffffffffffffffffffffffffffff169050600073ffffffffffffffffffffffffffffffffffffffff168173ffffffffffffffffffffffffffffffffffffffff16146120c857600860009054906101000a900473ffffffffffffffffffffffffffffffffffffffff1673ffffffffffffffffffffffffffffffffffffffff166323b872dd823060f06040518463ffffffff1660e01b8152600401611f7f93929190613019565b6020604051808303816000875af1158015611f9e573d6000803e3d6000fd5b505050506040513d601f19601f82011682018060405250810190611fc2919061307c565b5060008173ffffffffffffffffffffffffffffffffffffffff16600354604051611feb906131f8565b60006040518083038185875af1925050503d8060008114612028576040519150601f19603f3d011682016040523d82523d6000602084013e61202d565b606091505b5050905080612068576040517ff998533e00000000000000000000000000000000000000000000000000000000815260040160405180910390fd5b60006004848154811061207e5761207d612fa8565b5b9060005260206000200160006101000a81548173ffffffffffffffffffffffffffffffffffffffff021916908373ffffffffffffffffffffffffffffffffffffffff160217905550505b5080806120d4906130a9565b915050611e9b565b5060006005819055507fd388b3702b7477cb509e3dcffd528940656d857418e865dec6e5be19128adc0860405160405180910390a1565b6000807f000000000000000000000000000000000000000000000000000000000000000073ffffffffffffffffffffffffffffffffffffffff16634306d354620186a06040518263ffffffff1660e01b81526004016121729190613472565b602060405180830381865afa15801561218f573d6000803e3d6000fd5b505050506040513d601f19601f820116820180604052508101906121b39190612fec565b905060006001548210156121ca57600090506121db565b600154826121d89190612ef7565b90505b6121e4816124a0565b50816001541015612221576040517f2c23adf900000000000000000000000000000000000000000000000000000000815260040160405180910390fd5b612230620186a0600180612646565b9250505090565b600960009054906101000a900473ffffffffffffffffffffffffffffffffffffffff1673ffffffffffffffffffffffffffffffffffffffff16639dc29fac83836040518363ffffffff1660e01b815260040161229492919061320d565b600060405180830381600087803b1580156122ae57600080fd5b505af11580156122c2573d6000803e3d6000fd5b505050505050565b612360816040516024016122de9190612b4d565b6040516020818303038152906040527ff82c50f1000000000000000000000000000000000000000000000000000000007bffffffffffffffffffffffffffffffffffffffffffffffffffffffff19166020820180517bffffffffffffffffffffffffffffffffffffffffffffffffffffffff838183161783525050505061285d565b50565b6123fb82826040516024016123799291906134fb565b6040516020818303038152906040527fb60e72cc000000000000000000000000000000000000000000000000000000007bffffffffffffffffffffffffffffffffffffffffffffffffffffffff19166020820180517bffffffffffffffffffffffffffffffffffffffffffffffffffffffff838183161783525050505061285d565b5050565b61249581604051602401612413919061352b565b6040516020818303038152906040527f41304fac000000000000000000000000000000000000000000000000000000007bffffffffffffffffffffffffffffffffffffffffffffffffffffffff19166020820180517bffffffffffffffffffffffffffffffffffffffffffffffffffffffff838183161783525050505061285d565b50565b600033905090565b600080601e426124b091906130f1565b905060006124be6001612886565b9050600081856124ce9190613185565b9050478111156125175747816040517f8f2372e900000000000000000000000000000000000000000000000000000000815260040161250e929190613236565b60405180910390fd5b60008060009054906101000a900473ffffffffffffffffffffffffffffffffffffffff1673ffffffffffffffffffffffffffffffffffffffff1663fb3bdb418388612560612953565b30896040518663ffffffff1660e01b8152600401612581949392919061360b565b60006040518083038185885af115801561259f573d6000803e3d6000fd5b50505050506040513d6000823e3d601f19601f820116820180604052508101906125c991906136ee565b6001815181106125dc576125db612fa8565b5b6020026020010151905080600160008282546125f891906130f1565b925050819055507f0815c18c1ae4aab62623cdfc583121af931e7d7eb319d5f6997559ba57b8fc9a86828460405161263293929190613737565b60405180910390a180945050505050919050565b60007f000000000000000000000000000000000000000000000000000000000000000073ffffffffffffffffffffffffffffffffffffffff16634000aea07f00000000000000000000000000000000000000000000000000000000000000007f000000000000000000000000000000000000000000000000000000000000000073ffffffffffffffffffffffffffffffffffffffff16634306d354886040518263ffffffff1660e01b81526004016126fe9190613472565b602060405180830381865afa15801561271b573d6000803e3d6000fd5b505050506040513d601f19601f8201168201806040525081019061273f9190612fec565b8787876040516020016127549392919061378b565b6040516020818303038152906040526040518463ffffffff1660e01b815260040161278193929190613817565b6020604051808303816000875af11580156127a0573d6000803e3d6000fd5b505050506040513d601f19601f820116820180604052508101906127c4919061307c565b507f000000000000000000000000000000000000000000000000000000000000000073ffffffffffffffffffffffffffffffffffffffff1663fc2a88c36040518163ffffffff1660e01b8152600401602060405180830381865afa158015612830573d6000803e3d6000fd5b505050506040513d601f19601f820116820180604052508101906128549190612fec565b90509392505050565b60008151905060006a636f6e736f6c652e6c6f679050602083016000808483855afa5050505050565b60008060009054906101000a900473ffffffffffffffffffffffffffffffffffffffff1673ffffffffffffffffffffffffffffffffffffffff16631f00ca74836128ce612953565b6040518363ffffffff1660e01b81526004016128eb929190613855565b600060405180830381865afa158015612908573d6000803e3d6000fd5b505050506040513d6000823e3d601f19601f8201168201806040525081019061293191906136ee565b60008151811061294457612943612fa8565b5b60200260200101519050919050565b60606000600267ffffffffffffffff81111561297257612971612bbe565b5b6040519080825280602002602001820160405280156129a05781602001602082028036833780820191505090505b50905060008054906101000a900473ffffffffffffffffffffffffffffffffffffffff1673ffffffffffffffffffffffffffffffffffffffff1663ad5c46486040518163ffffffff1660e01b8152600401602060405180830381865afa158015612a0e573d6000803e3d6000fd5b505050506040513d601f19601f82011682018060405250810190612a32919061389a565b81600081518110612a4657612a45612fa8565b5b602002602001019073ffffffffffffffffffffffffffffffffffffffff16908173ffffffffffffffffffffffffffffffffffffffff16815250507f000000000000000000000000000000000000000000000000000000000000000081600181518110612ab557612ab4612fa8565b5b602002602001019073ffffffffffffffffffffffffffffffffffffffff16908173ffffffffffffffffffffffffffffffffffffffff16815250508091505090565b5080546000825590600052602060002090810190612b149190612b17565b50565b5b80821115612b30576000816000905550600101612b18565b5090565b6000819050919050565b612b4781612b34565b82525050565b6000602082019050612b626000830184612b3e565b92915050565b6000604051905090565b600080fd5b600080fd5b612b8581612b34565b8114612b9057600080fd5b50565b600081359050612ba281612b7c565b92915050565b600080fd5b6000601f19601f8301169050919050565b7f4e487b7100000000000000000000000000000000000000000000000000000000600052604160045260246000fd5b612bf682612bad565b810181811067ffffffffffffffff82111715612c1557612c14612bbe565b5b80604052505050565b6000612c28612b68565b9050612c348282612bed565b919050565b600067ffffffffffffffff821115612c5457612c53612bbe565b5b602082029050602081019050919050565b600080fd5b6000612c7d612c7884612c39565b612c1e565b90508083825260208201905060208402830185811115612ca057612c9f612c65565b5b835b81811015612cc95780612cb58882612b93565b845260208401935050602081019050612ca2565b5050509392505050565b600082601f830112612ce857612ce7612ba8565b5b8135612cf8848260208601612c6a565b91505092915050565b60008060408385031215612d1857612d17612b72565b5b6000612d2685828601612b93565b925050602083013567ffffffffffffffff811115612d4757612d46612b77565b5b612d5385828601612cd3565b9150509250929050565b600073ffffffffffffffffffffffffffffffffffffffff82169050919050565b6000612d8882612d5d565b9050919050565b612d9881612d7d565b82525050565b6000602082019050612db36000830184612d8f565b92915050565b612dc281612d7d565b8114612dcd57600080fd5b50565b600081359050612ddf81612db9565b92915050565b600080600060608486031215612dfe57612dfd612b72565b5b6000612e0c86828701612dd0565b9350506020612e1d86828701612dd0565b9250506040612e2e86828701612dd0565b9150509250925092565b600060208284031215612e4e57612e4d612b72565b5b6000612e5c84828501612dd0565b91505092915050565b60008115159050919050565b612e7a81612e65565b82525050565b6000602082019050612e956000830184612e71565b92915050565b600060208284031215612eb157612eb0612b72565b5b6000612ebf84828501612b93565b91505092915050565b7f4e487b7100000000000000000000000000000000000000000000000000000000600052601160045260246000fd5b6000612f0282612b34565b9150612f0d83612b34565b9250828203905081811115612f2557612f24612ec8565b5b92915050565b600082825260208201905092915050565b7f6f6e6c792056524620563220777261707065722063616e2066756c66696c6c00600082015250565b6000612f72601f83612f2b565b9150612f7d82612f3c565b602082019050919050565b60006020820190508181036000830152612fa181612f65565b9050919050565b7f4e487b7100000000000000000000000000000000000000000000000000000000600052603260045260246000fd5b600081519050612fe681612b7c565b92915050565b60006020828403121561300257613001612b72565b5b600061301084828501612fd7565b91505092915050565b600060608201905061302e6000830186612d8f565b61303b6020830185612d8f565b6130486040830184612b3e565b949350505050565b61305981612e65565b811461306457600080fd5b50565b60008151905061307681613050565b92915050565b60006020828403121561309257613091612b72565b5b60006130a084828501613067565b91505092915050565b60006130b482612b34565b91507fffffffffffffffffffffffffffffffffffffffffffffffffffffffffffffffff82036130e6576130e5612ec8565b5b600182019050919050565b60006130fc82612b34565b915061310783612b34565b925082820190508082111561311f5761311e612ec8565b5b92915050565b7f4e487b7100000000000000000000000000000000000000000000000000000000600052601260045260246000fd5b600061315f82612b34565b915061316a83612b34565b92508261317a57613179613125565b5b828204905092915050565b600061319082612b34565b915061319b83612b34565b92508282026131a981612b34565b915082820484148315176131c0576131bf612ec8565b5b5092915050565b600081905092915050565b50565b60006131e26000836131c7565b91506131ed826131d2565b600082019050919050565b6000613203826131d5565b9150819050919050565b60006040820190506132226000830185612d8f565b61322f6020830184612b3e565b9392505050565b600060408201905061324b6000830185612b3e565b6132586020830184612b3e565b9392505050565b7f4f776e61626c653a206e6577206f776e657220697320746865207a65726f206160008201527f6464726573730000000000000000000000000000000000000000000000000000602082015250565b60006132bb602683612f2b565b91506132c68261325f565b604082019050919050565b600060208201905081810360008301526132ea816132ae565b9050919050565b60006132fc82612b34565b915061330783612b34565b92508261331757613316613125565b5b828206905092915050565b6000819050919050565b600061333782613322565b915061334283613322565b925082820390508181126000841216828213600085121516171561336957613368612ec8565b5b92915050565b600061337a82613322565b915061338583613322565b925082820261339381613322565b91507f800000000000000000000000000000000000000000000000000000000000000084146000841216156133cb576133ca612ec8565b5b82820584148315176133e0576133df612ec8565b5b5092915050565b7f4f776e61626c653a2063616c6c6572206973206e6f7420746865206f776e6572600082015250565b600061341d602083612f2b565b9150613428826133e7565b602082019050919050565b6000602082019050818103600083015261344c81613410565b9050919050565b600063ffffffff82169050919050565b61346c81613453565b82525050565b60006020820190506134876000830184613463565b92915050565b600081519050919050565b60005b838110156134b657808201518184015260208101905061349b565b60008484015250505050565b60006134cd8261348d565b6134d78185612f2b565b93506134e7818560208601613498565b6134f081612bad565b840191505092915050565b6000604082019050818103600083015261351581856134c2565b90506135246020830184612b3e565b9392505050565b6000602082019050818103600083015261354581846134c2565b905092915050565b600081519050919050565b600082825260208201905092915050565b6000819050602082019050919050565b61358281612d7d565b82525050565b60006135948383613579565b60208301905092915050565b6000602082019050919050565b60006135b88261354d565b6135c28185613558565b93506135cd83613569565b8060005b838110156135fe5781516135e58882613588565b97506135f0836135a0565b9250506001810190506135d1565b5085935050505092915050565b60006080820190506136206000830187612b3e565b818103602083015261363281866135ad565b90506136416040830185612d8f565b61364e6060830184612b3e565b95945050505050565b600061366a61366584612c39565b612c1e565b9050808382526020820190506020840283018581111561368d5761368c612c65565b5b835b818110156136b657806136a28882612fd7565b84526020840193505060208101905061368f565b5050509392505050565b600082601f8301126136d5576136d4612ba8565b5b81516136e5848260208601613657565b91505092915050565b60006020828403121561370457613703612b72565b5b600082015167ffffffffffffffff81111561372257613721612b77565b5b61372e848285016136c0565b91505092915050565b600060608201905061374c6000830186612b3e565b6137596020830185612b3e565b6137666040830184612b3e565b949350505050565b600061ffff82169050919050565b6137858161376e565b82525050565b60006060820190506137a06000830186613463565b6137ad602083018561377c565b6137ba6040830184613463565b949350505050565b600081519050919050565b600082825260208201905092915050565b60006137e9826137c2565b6137f381856137cd565b9350613803818560208601613498565b61380c81612bad565b840191505092915050565b600060608201905061382c6000830186612d8f565b6138396020830185612b3e565b818103604083015261384b81846137de565b9050949350505050565b600060408201905061386a6000830185612b3e565b818103602083015261387c81846135ad565b90509392505050565b60008151905061389481612db9565b92915050565b6000602082840312156138b0576138af612b72565b5b60006138be84828501613885565b9150509291505056fea2646970667358221220247479ec14078bc1d29cc414a5d406ad231614bb99c647cb4dc99bd8dd6a77e264736f6c63430008110033",
  "devdoc": {
    "kind": "dev",
    "methods": {
      "owner()": {
        "details": "Returns the address of the current owner."
      },
      "renounceOwnership()": {
        "details": "Leaves the contract without owner. It will not be possible to call `onlyOwner` functions anymore. Can only be called by the current owner. NOTE: Renouncing ownership will leave the contract without an owner, thereby removing any functionality that is only available to the owner."
      },
      "transferOwnership(address)": {
        "details": "Transfers ownership of the contract to a new account (`newOwner`). Can only be called by the current owner."
      }
    },
    "version": 1
  },
  "userdoc": {
    "kind": "user",
    "methods": {},
    "version": 1
  },
  "storageLayout": {
    "storage": [
      {
        "astId": 4360,
        "contract": "contracts/MouseGame.sol:MouseGame",
        "label": "uniswapRouter",
        "offset": 0,
        "slot": "0",
        "type": "t_contract(IUniswapV2Router02)4924"
      },
      {
        "astId": 4365,
        "contract": "contracts/MouseGame.sol:MouseGame",
        "label": "s_linkBalance",
        "offset": 0,
        "slot": "1",
        "type": "t_uint256"
      },
      {
        "astId": 232,
        "contract": "contracts/MouseGame.sol:MouseGame",
        "label": "_owner",
        "offset": 0,
        "slot": "2",
        "type": "t_address"
      },
      {
        "astId": 2929,
        "contract": "contracts/MouseGame.sol:MouseGame",
        "label": "ENTRANCE_FEE",
        "offset": 0,
        "slot": "3",
        "type": "t_uint256"
      },
      {
        "astId": 2950,
        "contract": "contracts/MouseGame.sol:MouseGame",
        "label": "s_players",
        "offset": 0,
        "slot": "4",
        "type": "t_array(t_address)dyn_storage"
      },
      {
        "astId": 2952,
        "contract": "contracts/MouseGame.sol:MouseGame",
        "label": "s_inscriptionStartTime",
        "offset": 0,
        "slot": "5",
        "type": "t_uint256"
      },
      {
        "astId": 2954,
        "contract": "contracts/MouseGame.sol:MouseGame",
        "label": "s_gameStartTime",
        "offset": 0,
        "slot": "6",
        "type": "t_uint256"
      },
      {
        "astId": 2958,
        "contract": "contracts/MouseGame.sol:MouseGame",
        "label": "s_balance",
        "offset": 0,
        "slot": "7",
        "type": "t_mapping(t_address,t_uint256)"
      },
      {
        "astId": 2961,
        "contract": "contracts/MouseGame.sol:MouseGame",
        "label": "cheeseToken",
        "offset": 0,
        "slot": "8",
        "type": "t_contract(CheeseToken)2861"
      },
      {
        "astId": 2964,
        "contract": "contracts/MouseGame.sol:MouseGame",
        "label": "prizeToken",
        "offset": 0,
        "slot": "9",
        "type": "t_contract(PrizeToken)4266"
      },
      {
        "astId": 2967,
        "contract": "contracts/MouseGame.sol:MouseGame",
        "label": "mouseNft",
        "offset": 0,
        "slot": "10",
        "type": "t_contract(MouseNFT)4214"
      }
    ],
    "types": {
      "t_address": {
        "encoding": "inplace",
        "label": "address",
        "numberOfBytes": "20"
      },
      "t_array(t_address)dyn_storage": {
        "base": "t_address",
        "encoding": "dynamic_array",
        "label": "address[]",
        "numberOfBytes": "32"
      },
      "t_contract(CheeseToken)2861": {
        "encoding": "inplace",
        "label": "contract CheeseToken",
        "numberOfBytes": "20"
      },
      "t_contract(IUniswapV2Router02)4924": {
        "encoding": "inplace",
        "label": "contract IUniswapV2Router02",
        "numberOfBytes": "20"
      },
      "t_contract(MouseNFT)4214": {
        "encoding": "inplace",
        "label": "contract MouseNFT",
        "numberOfBytes": "20"
      },
      "t_contract(PrizeToken)4266": {
        "encoding": "inplace",
        "label": "contract PrizeToken",
        "numberOfBytes": "20"
      },
      "t_mapping(t_address,t_uint256)": {
        "encoding": "mapping",
        "key": "t_address",
        "label": "mapping(address => uint256)",
        "numberOfBytes": "32",
        "value": "t_uint256"
      },
      "t_uint256": {
        "encoding": "inplace",
        "label": "uint256",
        "numberOfBytes": "32"
      }
    }
  }
}