{
  "address": "0xcc467cc76030A3aec0Aa9ce169DAd8FDe7105271",
  "abi": [
    {
      "inputs": [
        {
          "internalType": "address payable",
          "name": "gameAddress",
          "type": "address"
        }
      ],
      "stateMutability": "nonpayable",
      "type": "constructor"
    },
    {
      "inputs": [],
      "name": "GameMinion__forbidden",
      "type": "error"
    },
    {
      "inputs": [],
      "name": "MouseNFT__OnlyOneMouse",
      "type": "error"
    },
    {
      "inputs": [],
      "name": "MouseNFT__toAddressNotInscribed",
      "type": "error"
    },
    {
      "anonymous": false,
      "inputs": [
        {
          "indexed": true,
          "internalType": "address",
          "name": "owner",
          "type": "address"
        },
        {
          "indexed": true,
          "internalType": "address",
          "name": "approved",
          "type": "address"
        },
        {
          "indexed": true,
          "internalType": "uint256",
          "name": "tokenId",
          "type": "uint256"
        }
      ],
      "name": "Approval",
      "type": "event"
    },
    {
      "anonymous": false,
      "inputs": [
        {
          "indexed": true,
          "internalType": "address",
          "name": "owner",
          "type": "address"
        },
        {
          "indexed": true,
          "internalType": "address",
          "name": "operator",
          "type": "address"
        },
        {
          "indexed": false,
          "internalType": "bool",
          "name": "approved",
          "type": "bool"
        }
      ],
      "name": "ApprovalForAll",
      "type": "event"
    },
    {
      "anonymous": false,
      "inputs": [
        {
          "indexed": true,
          "internalType": "address",
          "name": "previousOwner",
          "type": "address"
        },
        {
          "indexed": true,
          "internalType": "address",
          "name": "newOwner",
          "type": "address"
        }
      ],
      "name": "OwnershipTransferred",
      "type": "event"
    },
    {
      "anonymous": false,
      "inputs": [
        {
          "indexed": true,
          "internalType": "address",
          "name": "from",
          "type": "address"
        },
        {
          "indexed": true,
          "internalType": "address",
          "name": "to",
          "type": "address"
        },
        {
          "indexed": true,
          "internalType": "uint256",
          "name": "tokenId",
          "type": "uint256"
        }
      ],
      "name": "Transfer",
      "type": "event"
    },
    {
      "inputs": [
        {
          "internalType": "address",
          "name": "to",
          "type": "address"
        },
        {
          "internalType": "uint256",
          "name": "tokenId",
          "type": "uint256"
        }
      ],
      "name": "approve",
      "outputs": [],
      "stateMutability": "nonpayable",
      "type": "function"
    },
    {
      "inputs": [
        {
          "internalType": "address",
          "name": "owner",
          "type": "address"
        }
      ],
      "name": "balanceOf",
      "outputs": [
        {
          "internalType": "uint256",
          "name": "",
          "type": "uint256"
        }
      ],
      "stateMutability": "view",
      "type": "function"
    },
    {
      "inputs": [],
      "name": "burn",
      "outputs": [],
      "stateMutability": "nonpayable",
      "type": "function"
    },
    {
      "inputs": [
        {
          "internalType": "uint256",
          "name": "tokenId",
          "type": "uint256"
        }
      ],
      "name": "getApproved",
      "outputs": [
        {
          "internalType": "address",
          "name": "",
          "type": "address"
        }
      ],
      "stateMutability": "view",
      "type": "function"
    },
    {
      "inputs": [],
      "name": "getIsLive",
      "outputs": [
        {
          "internalType": "bool",
          "name": "",
          "type": "bool"
        }
      ],
      "stateMutability": "view",
      "type": "function"
    },
    {
      "inputs": [],
      "name": "getLastTransfer",
      "outputs": [
        {
          "internalType": "uint256",
          "name": "",
          "type": "uint256"
        }
      ],
      "stateMutability": "view",
      "type": "function"
    },
    {
      "inputs": [],
      "name": "getTokenCount",
      "outputs": [
        {
          "internalType": "uint256",
          "name": "",
          "type": "uint256"
        }
      ],
      "stateMutability": "view",
      "type": "function"
    },
    {
      "inputs": [
        {
          "internalType": "address",
          "name": "owner",
          "type": "address"
        },
        {
          "internalType": "address",
          "name": "operator",
          "type": "address"
        }
      ],
      "name": "isApprovedForAll",
      "outputs": [
        {
          "internalType": "bool",
          "name": "",
          "type": "bool"
        }
      ],
      "stateMutability": "view",
      "type": "function"
    },
    {
      "inputs": [
        {
          "internalType": "address",
          "name": "to",
          "type": "address"
        }
      ],
      "name": "mint",
      "outputs": [],
      "stateMutability": "nonpayable",
      "type": "function"
    },
    {
      "inputs": [],
      "name": "name",
      "outputs": [
        {
          "internalType": "string",
          "name": "",
          "type": "string"
        }
      ],
      "stateMutability": "view",
      "type": "function"
    },
    {
      "inputs": [],
      "name": "owner",
      "outputs": [
        {
          "internalType": "address",
          "name": "",
          "type": "address"
        }
      ],
      "stateMutability": "view",
      "type": "function"
    },
    {
      "inputs": [
        {
          "internalType": "uint256",
          "name": "tokenId",
          "type": "uint256"
        }
      ],
      "name": "ownerOf",
      "outputs": [
        {
          "internalType": "address",
          "name": "",
          "type": "address"
        }
      ],
      "stateMutability": "view",
      "type": "function"
    },
    {
      "inputs": [],
      "name": "renounceOwnership",
      "outputs": [],
      "stateMutability": "nonpayable",
      "type": "function"
    },
    {
      "inputs": [
        {
          "internalType": "address",
          "name": "from",
          "type": "address"
        },
        {
          "internalType": "address",
          "name": "to",
          "type": "address"
        },
        {
          "internalType": "uint256",
          "name": "tokenId",
          "type": "uint256"
        }
      ],
      "name": "safeTransferFrom",
      "outputs": [],
      "stateMutability": "nonpayable",
      "type": "function"
    },
    {
      "inputs": [
        {
          "internalType": "address",
          "name": "from",
          "type": "address"
        },
        {
          "internalType": "address",
          "name": "to",
          "type": "address"
        },
        {
          "internalType": "uint256",
          "name": "tokenId",
          "type": "uint256"
        },
        {
          "internalType": "bytes",
          "name": "data",
          "type": "bytes"
        }
      ],
      "name": "safeTransferFrom",
      "outputs": [],
      "stateMutability": "nonpayable",
      "type": "function"
    },
    {
      "inputs": [
        {
          "internalType": "address",
          "name": "operator",
          "type": "address"
        },
        {
          "internalType": "bool",
          "name": "approved",
          "type": "bool"
        }
      ],
      "name": "setApprovalForAll",
      "outputs": [],
      "stateMutability": "nonpayable",
      "type": "function"
    },
    {
      "inputs": [
        {
          "internalType": "address",
          "name": "cheeseTokenAddress",
          "type": "address"
        }
      ],
      "name": "setCheeseToken",
      "outputs": [],
      "stateMutability": "nonpayable",
      "type": "function"
    },
    {
      "inputs": [
        {
          "internalType": "bytes4",
          "name": "interfaceId",
          "type": "bytes4"
        }
      ],
      "name": "supportsInterface",
      "outputs": [
        {
          "internalType": "bool",
          "name": "",
          "type": "bool"
        }
      ],
      "stateMutability": "view",
      "type": "function"
    },
    {
      "inputs": [],
      "name": "symbol",
      "outputs": [
        {
          "internalType": "string",
          "name": "",
          "type": "string"
        }
      ],
      "stateMutability": "view",
      "type": "function"
    },
    {
      "inputs": [
        {
          "internalType": "uint256",
          "name": "",
          "type": "uint256"
        }
      ],
      "name": "tokenURI",
      "outputs": [
        {
          "internalType": "string",
          "name": "",
          "type": "string"
        }
      ],
      "stateMutability": "pure",
      "type": "function"
    },
    {
      "inputs": [
        {
          "internalType": "address",
          "name": "from",
          "type": "address"
        },
        {
          "internalType": "address",
          "name": "to",
          "type": "address"
        },
        {
          "internalType": "uint256",
          "name": "tokenId",
          "type": "uint256"
        }
      ],
      "name": "transferFrom",
      "outputs": [],
      "stateMutability": "nonpayable",
      "type": "function"
    },
    {
      "inputs": [
        {
          "internalType": "address",
          "name": "newOwner",
          "type": "address"
        }
      ],
      "name": "transferOwnership",
      "outputs": [],
      "stateMutability": "nonpayable",
      "type": "function"
    }
  ],
  "transactionHash": "0xff0d58c84c9e84398ec835063d01d77962bdf42c48fbb837ce641496a4000e35",
  "args": [
    "0x1F5373da283627a06F39AFCFAb5a5CF279A0883A"
  ],
  "numDeployments": 1,
  "solcInputHash": "73ad4a053ef78235dbfef65b03495466",
  "bytecode": "0x60a060405260006007556000600860006101000a81548160ff0219169083151502179055503480156200003157600080fd5b5060405162003cd638038062003cd68339818101604052810190620000579190620002bf565b806040518060400160405280600581526020017f4d6f7573650000000000000000000000000000000000000000000000000000008152506040518060400160405280600181526020017f4d000000000000000000000000000000000000000000000000000000000000008152508160009081620000d591906200056b565b508060019081620000e791906200056b565b5050508073ffffffffffffffffffffffffffffffffffffffff1660808173ffffffffffffffffffffffffffffffffffffffff1681525050506200013f620001336200018760201b60201c565b6200018f60201b60201c565b80600b60006101000a81548173ffffffffffffffffffffffffffffffffffffffff021916908373ffffffffffffffffffffffffffffffffffffffff1602179055505062000652565b600033905090565b6000600660009054906101000a900473ffffffffffffffffffffffffffffffffffffffff16905081600660006101000a81548173ffffffffffffffffffffffffffffffffffffffff021916908373ffffffffffffffffffffffffffffffffffffffff1602179055508173ffffffffffffffffffffffffffffffffffffffff168173ffffffffffffffffffffffffffffffffffffffff167f8be0079c531659141344cd1fd0a4f28419497f9722a3daafe3b4186f6b6457e060405160405180910390a35050565b600080fd5b600073ffffffffffffffffffffffffffffffffffffffff82169050919050565b600062000287826200025a565b9050919050565b62000299816200027a565b8114620002a557600080fd5b50565b600081519050620002b9816200028e565b92915050565b600060208284031215620002d857620002d762000255565b5b6000620002e884828501620002a8565b91505092915050565b600081519050919050565b7f4e487b7100000000000000000000000000000000000000000000000000000000600052604160045260246000fd5b7f4e487b7100000000000000000000000000000000000000000000000000000000600052602260045260246000fd5b600060028204905060018216806200037357607f821691505b6020821081036200038957620003886200032b565b5b50919050565b60008190508160005260206000209050919050565b60006020601f8301049050919050565b600082821b905092915050565b600060088302620003f37fffffffffffffffffffffffffffffffffffffffffffffffffffffffffffffffff82620003b4565b620003ff8683620003b4565b95508019841693508086168417925050509392505050565b6000819050919050565b6000819050919050565b60006200044c62000446620004408462000417565b62000421565b62000417565b9050919050565b6000819050919050565b62000468836200042b565b62000480620004778262000453565b848454620003c1565b825550505050565b600090565b6200049762000488565b620004a48184846200045d565b505050565b5b81811015620004cc57620004c06000826200048d565b600181019050620004aa565b5050565b601f8211156200051b57620004e5816200038f565b620004f084620003a4565b8101602085101562000500578190505b620005186200050f85620003a4565b830182620004a9565b50505b505050565b600082821c905092915050565b6000620005406000198460080262000520565b1980831691505092915050565b60006200055b83836200052d565b9150826002028217905092915050565b6200057682620002f1565b67ffffffffffffffff811115620005925762000591620002fc565b5b6200059e82546200035a565b620005ab828285620004d0565b600060209050601f831160018114620005e35760008415620005ce578287015190505b620005da85826200054d565b8655506200064a565b601f198416620005f3866200038f565b60005b828110156200061d57848901518255600182019150602085019450602081019050620005f6565b868310156200063d578489015162000639601f8916826200052d565b8355505b6001600288020188555050505b505050505050565b60805161366162000675600039600081816107ae015261090c01526136616000f3fe608060405234801561001057600080fd5b50600436106101425760003560e01c8063715018a6116100b8578063a22cb4651161007c578063a22cb4651461033d578063b88d4fde14610359578063c87b56dd14610375578063d7fe8ab0146103a5578063e985e9c5146103c3578063f2fde38b146103f357610142565b8063715018a6146102bb57806378a89567146102c55780637f8f6065146102e35780638da5cb5b1461030157806395d89b411461031f57610142565b806323b872dd1161010a57806323b872dd146101fd57806342842e0e1461021957806344df8e70146102355780636352211e1461023f5780636a6278421461026f57806370a082311461028b57610142565b806301ffc9a71461014757806306a5a6f91461017757806306fdde0314610193578063081812fc146101b1578063095ea7b3146101e1575b600080fd5b610161600480360381019061015c919061219a565b61040f565b60405161016e91906121e2565b60405180910390f35b610191600480360381019061018c919061225b565b6104f1565b005b61019b61053d565b6040516101a89190612318565b60405180910390f35b6101cb60048036038101906101c69190612370565b6105cf565b6040516101d891906123ac565b60405180910390f35b6101fb60048036038101906101f691906123c7565b610615565b005b61021760048036038101906102129190612407565b61072c565b005b610233600480360381019061022e9190612407565b61078c565b005b61023d6107ac565b005b61025960048036038101906102549190612370565b610859565b60405161026691906123ac565b60405180910390f35b6102896004803603810190610284919061225b565b61090a565b005b6102a560048036038101906102a0919061225b565b610a9a565b6040516102b29190612469565b60405180910390f35b6102c3610b51565b005b6102cd610b65565b6040516102da9190612469565b60405180910390f35b6102eb610b6f565b6040516102f891906121e2565b60405180910390f35b610309610b86565b60405161031691906123ac565b60405180910390f35b610327610bb0565b6040516103349190612318565b60405180910390f35b610357600480360381019061035291906124b0565b610c42565b005b610373600480360381019061036e9190612625565b610c58565b005b61038f600480360381019061038a9190612370565b610cba565b60405161039c9190612318565b60405180910390f35b6103ad610d0e565b6040516103ba9190612469565b60405180910390f35b6103dd60048036038101906103d891906126a8565b610d18565b6040516103ea91906121e2565b60405180910390f35b61040d6004803603810190610408919061225b565b610dac565b005b60007f80ac58cd000000000000000000000000000000000000000000000000000000007bffffffffffffffffffffffffffffffffffffffffffffffffffffffff1916827bffffffffffffffffffffffffffffffffffffffffffffffffffffffff191614806104da57507f5b5e139f000000000000000000000000000000000000000000000000000000007bffffffffffffffffffffffffffffffffffffffffffffffffffffffff1916827bffffffffffffffffffffffffffffffffffffffffffffffffffffffff1916145b806104ea57506104e982610e2f565b5b9050919050565b6104f9610e99565b80600a60006101000a81548173ffffffffffffffffffffffffffffffffffffffff021916908373ffffffffffffffffffffffffffffffffffffffff16021790555050565b60606000805461054c90612717565b80601f016020809104026020016040519081016040528092919081815260200182805461057890612717565b80156105c55780601f1061059a576101008083540402835291602001916105c5565b820191906000526020600020905b8154815290600101906020018083116105a857829003601f168201915b5050505050905090565b60006105da82610f17565b6004600083815260200190815260200160002060009054906101000a900473ffffffffffffffffffffffffffffffffffffffff169050919050565b600061062082610859565b90508073ffffffffffffffffffffffffffffffffffffffff168373ffffffffffffffffffffffffffffffffffffffff1603610690576040517f08c379a0000000000000000000000000000000000000000000000000000000008152600401610687906127ba565b60405180910390fd5b8073ffffffffffffffffffffffffffffffffffffffff166106af610f62565b73ffffffffffffffffffffffffffffffffffffffff1614806106de57506106dd816106d8610f62565b610d18565b5b61071d576040517f08c379a00000000000000000000000000000000000000000000000000000000081526004016107149061284c565b60405180910390fd5b6107278383610f6a565b505050565b61073d610737610f62565b82611023565b61077c576040517f08c379a0000000000000000000000000000000000000000000000000000000008152600401610773906128de565b60405180910390fd5b6107878383836110b8565b505050565b6107a783838360405180602001604052806000815250610c58565b505050565b7f000000000000000000000000000000000000000000000000000000000000000073ffffffffffffffffffffffffffffffffffffffff163373ffffffffffffffffffffffffffffffffffffffff1614610831576040517f5892b33000000000000000000000000000000000000000000000000000000000815260040160405180910390fd5b61083c60075461131e565b6000600860006101000a81548160ff021916908315150217905550565b6000806002600084815260200190815260200160002060009054906101000a900473ffffffffffffffffffffffffffffffffffffffff169050600073ffffffffffffffffffffffffffffffffffffffff168173ffffffffffffffffffffffffffffffffffffffff1603610901576040517f08c379a00000000000000000000000000000000000000000000000000000000081526004016108f89061294a565b60405180910390fd5b80915050919050565b7f000000000000000000000000000000000000000000000000000000000000000073ffffffffffffffffffffffffffffffffffffffff163373ffffffffffffffffffffffffffffffffffffffff161461098f576040517f5892b33000000000000000000000000000000000000000000000000000000000815260040160405180910390fd5b600860009054906101000a900460ff16156109d6576040517f7a2ba21000000000000000000000000000000000000000000000000000000000815260040160405180910390fd5b6001600860006101000a81548160ff021916908315150217905550600160076000828254610a049190612999565b92505081905550610a4d6040518060400160405280601481526020017f676f6e6e61206d696e74207769746820617267730000000000000000000000008152508260075461143b565b610a59816007546114da565b610a976040518060400160405280600981526020017f6d696e747474746564000000000000000000000000000000000000000000000081525061176d565b50565b60008073ffffffffffffffffffffffffffffffffffffffff168273ffffffffffffffffffffffffffffffffffffffff1603610b0a576040517f08c379a0000000000000000000000000000000000000000000000000000000008152600401610b0190612a3f565b60405180910390fd5b600360008373ffffffffffffffffffffffffffffffffffffffff1673ffffffffffffffffffffffffffffffffffffffff168152602001908152602001600020549050919050565b610b59610e99565b610b636000611806565b565b6000600754905090565b6000600860009054906101000a900460ff16905090565b6000600660009054906101000a900473ffffffffffffffffffffffffffffffffffffffff16905090565b606060018054610bbf90612717565b80601f0160208091040260200160405190810160405280929190818152602001828054610beb90612717565b8015610c385780601f10610c0d57610100808354040283529160200191610c38565b820191906000526020600020905b815481529060010190602001808311610c1b57829003601f168201915b5050505050905090565b610c54610c4d610f62565b83836118cc565b5050565b610c69610c63610f62565b83611023565b610ca8576040517f08c379a0000000000000000000000000000000000000000000000000000000008152600401610c9f906128de565b60405180910390fd5b610cb484848484611a38565b50505050565b60606000604051602001610ccd90612e6c565b6040516020818303038152906040529050610ce781611a94565b604051602001610cf79190612f61565b604051602081830303815290604052915050919050565b6000600954905090565b6000600560008473ffffffffffffffffffffffffffffffffffffffff1673ffffffffffffffffffffffffffffffffffffffff16815260200190815260200160002060008373ffffffffffffffffffffffffffffffffffffffff1673ffffffffffffffffffffffffffffffffffffffff16815260200190815260200160002060009054906101000a900460ff16905092915050565b610db4610e99565b600073ffffffffffffffffffffffffffffffffffffffff168173ffffffffffffffffffffffffffffffffffffffff1603610e23576040517f08c379a0000000000000000000000000000000000000000000000000000000008152600401610e1a90612ff5565b60405180910390fd5b610e2c81611806565b50565b60007f01ffc9a7000000000000000000000000000000000000000000000000000000007bffffffffffffffffffffffffffffffffffffffffffffffffffffffff1916827bffffffffffffffffffffffffffffffffffffffffffffffffffffffff1916149050919050565b610ea1610f62565b73ffffffffffffffffffffffffffffffffffffffff16610ebf610b86565b73ffffffffffffffffffffffffffffffffffffffff1614610f15576040517f08c379a0000000000000000000000000000000000000000000000000000000008152600401610f0c90613061565b60405180910390fd5b565b610f2081611bf7565b610f5f576040517f08c379a0000000000000000000000000000000000000000000000000000000008152600401610f569061294a565b60405180910390fd5b50565b600033905090565b816004600083815260200190815260200160002060006101000a81548173ffffffffffffffffffffffffffffffffffffffff021916908373ffffffffffffffffffffffffffffffffffffffff160217905550808273ffffffffffffffffffffffffffffffffffffffff16610fdd83610859565b73ffffffffffffffffffffffffffffffffffffffff167f8c5be1e5ebec7d5bd14f71427d1e84f3dd0314c0f7b2291e5b200ac8c7c3b92560405160405180910390a45050565b60008061102f83610859565b90508073ffffffffffffffffffffffffffffffffffffffff168473ffffffffffffffffffffffffffffffffffffffff16148061107157506110708185610d18565b5b806110af57508373ffffffffffffffffffffffffffffffffffffffff16611097846105cf565b73ffffffffffffffffffffffffffffffffffffffff16145b91505092915050565b8273ffffffffffffffffffffffffffffffffffffffff166110d882610859565b73ffffffffffffffffffffffffffffffffffffffff161461112e576040517f08c379a0000000000000000000000000000000000000000000000000000000008152600401611125906130f3565b60405180910390fd5b600073ffffffffffffffffffffffffffffffffffffffff168273ffffffffffffffffffffffffffffffffffffffff160361119d576040517f08c379a000000000000000000000000000000000000000000000000000000000815260040161119490613185565b60405180910390fd5b6111a8838383611c63565b6111b3600082610f6a565b6001600360008573ffffffffffffffffffffffffffffffffffffffff1673ffffffffffffffffffffffffffffffffffffffff168152602001908152602001600020600082825461120391906131a5565b925050819055506001600360008473ffffffffffffffffffffffffffffffffffffffff1673ffffffffffffffffffffffffffffffffffffffff168152602001908152602001600020600082825461125a9190612999565b92505081905550816002600083815260200190815260200160002060006101000a81548173ffffffffffffffffffffffffffffffffffffffff021916908373ffffffffffffffffffffffffffffffffffffffff160217905550808273ffffffffffffffffffffffffffffffffffffffff168473ffffffffffffffffffffffffffffffffffffffff167fddf252ad1be2c89b69c2b068fc378daa952ba7f163c4a11628f55a4df523b3ef60405160405180910390a4611319838383611f56565b505050565b600061132982610859565b905061133781600084611c63565b611342600083610f6a565b6001600360008373ffffffffffffffffffffffffffffffffffffffff1673ffffffffffffffffffffffffffffffffffffffff168152602001908152602001600020600082825461139291906131a5565b925050819055506002600083815260200190815260200160002060006101000a81549073ffffffffffffffffffffffffffffffffffffffff021916905581600073ffffffffffffffffffffffffffffffffffffffff168273ffffffffffffffffffffffffffffffffffffffff167fddf252ad1be2c89b69c2b068fc378daa952ba7f163c4a11628f55a4df523b3ef60405160405180910390a461143781600084611f56565b5050565b6114d5838383604051602401611453939291906131d9565b6040516020818303038152906040527f0d26b925000000000000000000000000000000000000000000000000000000007bffffffffffffffffffffffffffffffffffffffffffffffffffffffff19166020820180517bffffffffffffffffffffffffffffffffffffffffffffffffffffffff8381831617835250505050611f5b565b505050565b600073ffffffffffffffffffffffffffffffffffffffff168273ffffffffffffffffffffffffffffffffffffffff1603611549576040517f08c379a000000000000000000000000000000000000000000000000000000000815260040161154090613263565b60405180910390fd5b61155281611bf7565b15611592576040517f08c379a0000000000000000000000000000000000000000000000000000000008152600401611589906132cf565b60405180910390fd5b61159e60008383611c63565b6115dc6040518060400160405280600681526020017f6d696e742031000000000000000000000000000000000000000000000000000081525061176d565b6001600360008473ffffffffffffffffffffffffffffffffffffffff1673ffffffffffffffffffffffffffffffffffffffff168152602001908152602001600020600082825461162c9190612999565b925050819055506116716040518060400160405280600681526020017f6d696e742032000000000000000000000000000000000000000000000000000081525061176d565b816002600083815260200190815260200160002060006101000a81548173ffffffffffffffffffffffffffffffffffffffff021916908373ffffffffffffffffffffffffffffffffffffffff1602179055506117016040518060400160405280600681526020017f6d696e742033000000000000000000000000000000000000000000000000000081525061176d565b808273ffffffffffffffffffffffffffffffffffffffff16600073ffffffffffffffffffffffffffffffffffffffff167fddf252ad1be2c89b69c2b068fc378daa952ba7f163c4a11628f55a4df523b3ef60405160405180910390a461176960008383611f56565b5050565b611803816040516024016117819190612318565b6040516020818303038152906040527f41304fac000000000000000000000000000000000000000000000000000000007bffffffffffffffffffffffffffffffffffffffffffffffffffffffff19166020820180517bffffffffffffffffffffffffffffffffffffffffffffffffffffffff8381831617835250505050611f5b565b50565b6000600660009054906101000a900473ffffffffffffffffffffffffffffffffffffffff16905081600660006101000a81548173ffffffffffffffffffffffffffffffffffffffff021916908373ffffffffffffffffffffffffffffffffffffffff1602179055508173ffffffffffffffffffffffffffffffffffffffff168173ffffffffffffffffffffffffffffffffffffffff167f8be0079c531659141344cd1fd0a4f28419497f9722a3daafe3b4186f6b6457e060405160405180910390a35050565b8173ffffffffffffffffffffffffffffffffffffffff168373ffffffffffffffffffffffffffffffffffffffff160361193a576040517f08c379a00000000000000000000000000000000000000000000000000000000081526004016119319061333b565b60405180910390fd5b80600560008573ffffffffffffffffffffffffffffffffffffffff1673ffffffffffffffffffffffffffffffffffffffff16815260200190815260200160002060008473ffffffffffffffffffffffffffffffffffffffff1673ffffffffffffffffffffffffffffffffffffffff16815260200190815260200160002060006101000a81548160ff0219169083151502179055508173ffffffffffffffffffffffffffffffffffffffff168373ffffffffffffffffffffffffffffffffffffffff167f17307eab39ab6107e8899845ad3d59bd9653f200f220920489ca2b5937696c3183604051611a2b91906121e2565b60405180910390a3505050565b611a438484846110b8565b611a4f84848484611f84565b611a8e576040517f08c379a0000000000000000000000000000000000000000000000000000000008152600401611a85906133cd565b60405180910390fd5b50505050565b60606000825103611ab657604051806020016040528060008152509050611bf2565b60006040518060600160405280604081526020016135ec6040913990506000600360028551611ae59190612999565b611aef919061341c565b6004611afb919061344d565b67ffffffffffffffff811115611b1457611b136124fa565b5b6040519080825280601f01601f191660200182016040528015611b465781602001600182028036833780820191505090505b509050600182016020820185865187015b80821015611bb2576003820191508151603f8160121c168501518453600184019350603f81600c1c168501518453600184019350603f8160061c168501518453600184019350603f8116850151845360018401935050611b57565b5050600386510660018114611bce5760028114611be157611be9565b603d6001830353603d6002830353611be9565b603d60018303535b50505080925050505b919050565b60008073ffffffffffffffffffffffffffffffffffffffff166002600084815260200190815260200160002060009054906101000a900473ffffffffffffffffffffffffffffffffffffffff1673ffffffffffffffffffffffffffffffffffffffff1614159050919050565b600b60009054906101000a900473ffffffffffffffffffffffffffffffffffffffff1673ffffffffffffffffffffffffffffffffffffffff1663c3c5a547836040518263ffffffff1660e01b8152600401611cbe91906123ac565b602060405180830381865afa158015611cdb573d6000803e3d6000fd5b505050506040513d601f19601f82011682018060405250810190611cff91906134a4565b158015611d395750600073ffffffffffffffffffffffffffffffffffffffff168273ffffffffffffffffffffffffffffffffffffffff1614155b15611d70576040517f23893ca400000000000000000000000000000000000000000000000000000000815260040160405180910390fd5b60006009541115611e8c57611db96040518060400160405280601481526020017f696e20735f6c6173745472616e666572203e203000000000000000000000000081525061176d565b6000601e60095442611dcb91906131a5565b611dd5919061341c565b90506000611de4600754610859565b9050600a60009054906101000a900473ffffffffffffffffffffffffffffffffffffffff1673ffffffffffffffffffffffffffffffffffffffff166323b872dd8230856040518463ffffffff1660e01b8152600401611e45939291906134d1565b6020604051808303816000875af1158015611e64573d6000803e3d6000fd5b505050506040513d601f19601f82011682018060405250810190611e8891906134a4565b5050505b600073ffffffffffffffffffffffffffffffffffffffff168273ffffffffffffffffffffffffffffffffffffffff1603611f0b57611efe6040518060400160405280600c81526020017f696e20616464726573732030000000000000000000000000000000000000000081525061176d565b6000600981905550611f51565b611f496040518060400160405280600f81526020017f696e206e6f20616464726573732030000000000000000000000000000000000081525061176d565b426009819055505b505050565b505050565b60008151905060006a636f6e736f6c652e6c6f679050602083016000808483855afa5050505050565b6000611fa58473ffffffffffffffffffffffffffffffffffffffff1661210b565b156120fe578373ffffffffffffffffffffffffffffffffffffffff1663150b7a02611fce610f62565b8786866040518563ffffffff1660e01b8152600401611ff0949392919061355d565b6020604051808303816000875af192505050801561202c57506040513d601f19601f8201168201806040525081019061202991906135be565b60015b6120ae573d806000811461205c576040519150601f19603f3d011682016040523d82523d6000602084013e612061565b606091505b5060008151036120a6576040517f08c379a000000000000000000000000000000000000000000000000000000000815260040161209d906133cd565b60405180910390fd5b805181602001fd5b63150b7a0260e01b7bffffffffffffffffffffffffffffffffffffffffffffffffffffffff1916817bffffffffffffffffffffffffffffffffffffffffffffffffffffffff191614915050612103565b600190505b949350505050565b6000808273ffffffffffffffffffffffffffffffffffffffff163b119050919050565b6000604051905090565b600080fd5b600080fd5b60007fffffffff0000000000000000000000000000000000000000000000000000000082169050919050565b61217781612142565b811461218257600080fd5b50565b6000813590506121948161216e565b92915050565b6000602082840312156121b0576121af612138565b5b60006121be84828501612185565b91505092915050565b60008115159050919050565b6121dc816121c7565b82525050565b60006020820190506121f760008301846121d3565b92915050565b600073ffffffffffffffffffffffffffffffffffffffff82169050919050565b6000612228826121fd565b9050919050565b6122388161221d565b811461224357600080fd5b50565b6000813590506122558161222f565b92915050565b60006020828403121561227157612270612138565b5b600061227f84828501612246565b91505092915050565b600081519050919050565b600082825260208201905092915050565b60005b838110156122c25780820151818401526020810190506122a7565b60008484015250505050565b6000601f19601f8301169050919050565b60006122ea82612288565b6122f48185612293565b93506123048185602086016122a4565b61230d816122ce565b840191505092915050565b6000602082019050818103600083015261233281846122df565b905092915050565b6000819050919050565b61234d8161233a565b811461235857600080fd5b50565b60008135905061236a81612344565b92915050565b60006020828403121561238657612385612138565b5b60006123948482850161235b565b91505092915050565b6123a68161221d565b82525050565b60006020820190506123c1600083018461239d565b92915050565b600080604083850312156123de576123dd612138565b5b60006123ec85828601612246565b92505060206123fd8582860161235b565b9150509250929050565b6000806000606084860312156124205761241f612138565b5b600061242e86828701612246565b935050602061243f86828701612246565b92505060406124508682870161235b565b9150509250925092565b6124638161233a565b82525050565b600060208201905061247e600083018461245a565b92915050565b61248d816121c7565b811461249857600080fd5b50565b6000813590506124aa81612484565b92915050565b600080604083850312156124c7576124c6612138565b5b60006124d585828601612246565b92505060206124e68582860161249b565b9150509250929050565b600080fd5b600080fd5b7f4e487b7100000000000000000000000000000000000000000000000000000000600052604160045260246000fd5b612532826122ce565b810181811067ffffffffffffffff82111715612551576125506124fa565b5b80604052505050565b600061256461212e565b90506125708282612529565b919050565b600067ffffffffffffffff8211156125905761258f6124fa565b5b612599826122ce565b9050602081019050919050565b82818337600083830152505050565b60006125c86125c384612575565b61255a565b9050828152602081018484840111156125e4576125e36124f5565b5b6125ef8482856125a6565b509392505050565b600082601f83011261260c5761260b6124f0565b5b813561261c8482602086016125b5565b91505092915050565b6000806000806080858703121561263f5761263e612138565b5b600061264d87828801612246565b945050602061265e87828801612246565b935050604061266f8782880161235b565b925050606085013567ffffffffffffffff8111156126905761268f61213d565b5b61269c878288016125f7565b91505092959194509250565b600080604083850312156126bf576126be612138565b5b60006126cd85828601612246565b92505060206126de85828601612246565b9150509250929050565b7f4e487b7100000000000000000000000000000000000000000000000000000000600052602260045260246000fd5b6000600282049050600182168061272f57607f821691505b602082108103612742576127416126e8565b5b50919050565b7f4552433732313a20617070726f76616c20746f2063757272656e74206f776e6560008201527f7200000000000000000000000000000000000000000000000000000000000000602082015250565b60006127a4602183612293565b91506127af82612748565b604082019050919050565b600060208201905081810360008301526127d381612797565b9050919050565b7f4552433732313a20617070726f76652063616c6c6572206973206e6f7420746f60008201527f6b656e206f776e6572206e6f7220617070726f76656420666f7220616c6c0000602082015250565b6000612836603e83612293565b9150612841826127da565b604082019050919050565b6000602082019050818103600083015261286581612829565b9050919050565b7f4552433732313a2063616c6c6572206973206e6f7420746f6b656e206f776e6560008201527f72206e6f7220617070726f766564000000000000000000000000000000000000602082015250565b60006128c8602e83612293565b91506128d38261286c565b604082019050919050565b600060208201905081810360008301526128f7816128bb565b9050919050565b7f4552433732313a20696e76616c696420746f6b656e2049440000000000000000600082015250565b6000612934601883612293565b915061293f826128fe565b602082019050919050565b6000602082019050818103600083015261296381612927565b9050919050565b7f4e487b7100000000000000000000000000000000000000000000000000000000600052601160045260246000fd5b60006129a48261233a565b91506129af8361233a565b92508282019050808211156129c7576129c661296a565b5b92915050565b7f4552433732313a2061646472657373207a65726f206973206e6f74206120766160008201527f6c6964206f776e65720000000000000000000000000000000000000000000000602082015250565b6000612a29602983612293565b9150612a34826129cd565b604082019050919050565b60006020820190508181036000830152612a5881612a1c565b9050919050565b600081905092915050565b7f7b00000000000000000000000000000000000000000000000000000000000000600082015250565b6000612aa0600183612a5f565b9150612aab82612a6a565b600182019050919050565b7f226465736372697074696f6e223a20225472616e736665722074686973206d6f60008201527f75736520717569636b6c79206f722069742077696c6c20737465616c20616c6c60208201527f20796f75722063686565736521222c0000000000000000000000000000000000604082015250565b6000612b38604f83612a5f565b9150612b4382612ab6565b604f82019050919050565b7f2265787465726e616c5f75726c223a2022746f646f222c000000000000000000600082015250565b6000612b84601783612a5f565b9150612b8f82612b4e565b601782019050919050565b7f22696d616765223a202268747470733a2f2f75706c6f61642e77696b696d656460008201527f69612e6f72672f77696b6970656469612f636f6d6d6f6e732f362f36332f547760208201527f656d6f6a6931325f31663432642e737667222c00000000000000000000000000604082015250565b6000612c1c605383612a5f565b9150612c2782612b9a565b605382019050919050565b7f226e616d65223a2022426164204d6f757365222c000000000000000000000000600082015250565b6000612c68601483612a5f565b9150612c7382612c32565b601482019050919050565b7f2261747472696275746573223a205b2000000000000000000000000000000000600082015250565b6000612cb4601083612a5f565b9150612cbf82612c7e565b601082019050919050565b7f7b2274726169745f74797065223a2022706572736f6e616c697479222c22766160008201527f6c7565223a20227468696566227d2c0000000000000000000000000000000000602082015250565b6000612d26602f83612a5f565b9150612d3182612cca565b602f82019050919050565b7f7b2274726169745f74797065223a2022676f6f646e657373222c2276616c756560008201527f223a202230227d2c000000000000000000000000000000000000000000000000602082015250565b6000612d98602883612a5f565b9150612da382612d3c565b602882019050919050565b7f7b2274726169745f74797065223a20226368656573655f74686566745f73706560008201527f65645f7065725f736563222c2276616c7565223a20223330227d5d0000000000602082015250565b6000612e0a603b83612a5f565b9150612e1582612dae565b603b82019050919050565b7f7d00000000000000000000000000000000000000000000000000000000000000600082015250565b6000612e56600183612a5f565b9150612e6182612e20565b600182019050919050565b6000612e7782612a93565b9150612e8282612b2b565b9150612e8d82612b77565b9150612e9882612c0f565b9150612ea382612c5b565b9150612eae82612ca7565b9150612eb982612d19565b9150612ec482612d8b565b9150612ecf82612dfd565b9150612eda82612e49565b9150819050919050565b7f646174613a6170706c69636174696f6e2f6a736f6e3b6261736536342c000000600082015250565b6000612f1a601d83612a5f565b9150612f2582612ee4565b601d82019050919050565b6000612f3b82612288565b612f458185612a5f565b9350612f558185602086016122a4565b80840191505092915050565b6000612f6c82612f0d565b9150612f788284612f30565b915081905092915050565b7f4f776e61626c653a206e6577206f776e657220697320746865207a65726f206160008201527f6464726573730000000000000000000000000000000000000000000000000000602082015250565b6000612fdf602683612293565b9150612fea82612f83565b604082019050919050565b6000602082019050818103600083015261300e81612fd2565b9050919050565b7f4f776e61626c653a2063616c6c6572206973206e6f7420746865206f776e6572600082015250565b600061304b602083612293565b915061305682613015565b602082019050919050565b6000602082019050818103600083015261307a8161303e565b9050919050565b7f4552433732313a207472616e736665722066726f6d20696e636f72726563742060008201527f6f776e6572000000000000000000000000000000000000000000000000000000602082015250565b60006130dd602583612293565b91506130e882613081565b604082019050919050565b6000602082019050818103600083015261310c816130d0565b9050919050565b7f4552433732313a207472616e7366657220746f20746865207a65726f2061646460008201527f7265737300000000000000000000000000000000000000000000000000000000602082015250565b600061316f602483612293565b915061317a82613113565b604082019050919050565b6000602082019050818103600083015261319e81613162565b9050919050565b60006131b08261233a565b91506131bb8361233a565b92508282039050818111156131d3576131d261296a565b5b92915050565b600060608201905081810360008301526131f381866122df565b9050613202602083018561239d565b61320f604083018461245a565b949350505050565b7f4552433732313a206d696e7420746f20746865207a65726f2061646472657373600082015250565b600061324d602083612293565b915061325882613217565b602082019050919050565b6000602082019050818103600083015261327c81613240565b9050919050565b7f4552433732313a20746f6b656e20616c7265616479206d696e74656400000000600082015250565b60006132b9601c83612293565b91506132c482613283565b602082019050919050565b600060208201905081810360008301526132e8816132ac565b9050919050565b7f4552433732313a20617070726f766520746f2063616c6c657200000000000000600082015250565b6000613325601983612293565b9150613330826132ef565b602082019050919050565b6000602082019050818103600083015261335481613318565b9050919050565b7f4552433732313a207472616e7366657220746f206e6f6e20455243373231526560008201527f63656976657220696d706c656d656e7465720000000000000000000000000000602082015250565b60006133b7603283612293565b91506133c28261335b565b604082019050919050565b600060208201905081810360008301526133e6816133aa565b9050919050565b7f4e487b7100000000000000000000000000000000000000000000000000000000600052601260045260246000fd5b60006134278261233a565b91506134328361233a565b925082613442576134416133ed565b5b828204905092915050565b60006134588261233a565b91506134638361233a565b92508282026134718161233a565b915082820484148315176134885761348761296a565b5b5092915050565b60008151905061349e81612484565b92915050565b6000602082840312156134ba576134b9612138565b5b60006134c88482850161348f565b91505092915050565b60006060820190506134e6600083018661239d565b6134f3602083018561239d565b613500604083018461245a565b949350505050565b600081519050919050565b600082825260208201905092915050565b600061352f82613508565b6135398185613513565b93506135498185602086016122a4565b613552816122ce565b840191505092915050565b6000608082019050613572600083018761239d565b61357f602083018661239d565b61358c604083018561245a565b818103606083015261359e8184613524565b905095945050505050565b6000815190506135b88161216e565b92915050565b6000602082840312156135d4576135d3612138565b5b60006135e2848285016135a9565b9150509291505056fe4142434445464748494a4b4c4d4e4f505152535455565758595a6162636465666768696a6b6c6d6e6f707172737475767778797a303132333435363738392b2fa26469706673582212207b8e26714f0219174ed2aa81c08b6fa0a4e02d5ee859f0b976deb6d6fac2ffa364736f6c63430008110033",
  "devdoc": {
    "kind": "dev",
    "methods": {
      "approve(address,uint256)": {
        "details": "See {IERC721-approve}."
      },
      "balanceOf(address)": {
        "details": "See {IERC721-balanceOf}."
      },
      "getApproved(uint256)": {
        "details": "See {IERC721-getApproved}."
      },
      "isApprovedForAll(address,address)": {
        "details": "See {IERC721-isApprovedForAll}."
      },
      "name()": {
        "details": "See {IERC721Metadata-name}."
      },
      "owner()": {
        "details": "Returns the address of the current owner."
      },
      "ownerOf(uint256)": {
        "details": "See {IERC721-ownerOf}."
      },
      "renounceOwnership()": {
        "details": "Leaves the contract without owner. It will not be possible to call `onlyOwner` functions anymore. Can only be called by the current owner. NOTE: Renouncing ownership will leave the contract without an owner, thereby removing any functionality that is only available to the owner."
      },
      "safeTransferFrom(address,address,uint256)": {
        "details": "See {IERC721-safeTransferFrom}."
      },
      "safeTransferFrom(address,address,uint256,bytes)": {
        "details": "See {IERC721-safeTransferFrom}."
      },
      "setApprovalForAll(address,bool)": {
        "details": "See {IERC721-setApprovalForAll}."
      },
      "supportsInterface(bytes4)": {
        "details": "See {IERC165-supportsInterface}."
      },
      "symbol()": {
        "details": "See {IERC721Metadata-symbol}."
      },
      "transferFrom(address,address,uint256)": {
        "details": "See {IERC721-transferFrom}."
      },
      "transferOwnership(address)": {
        "details": "Transfers ownership of the contract to a new account (`newOwner`). Can only be called by the current owner."
      }
    },
    "version": 1
  },
  "userdoc": {
    "kind": "user",
    "methods": {},
    "version": 1
  },
  "storageLayout": {
    "storage": [
      {
        "astId": 1053,
        "contract": "contracts/MouseNFT.sol:MouseNFT",
        "label": "_name",
        "offset": 0,
        "slot": "0",
        "type": "t_string_storage"
      },
      {
        "astId": 1055,
        "contract": "contracts/MouseNFT.sol:MouseNFT",
        "label": "_symbol",
        "offset": 0,
        "slot": "1",
        "type": "t_string_storage"
      },
      {
        "astId": 1059,
        "contract": "contracts/MouseNFT.sol:MouseNFT",
        "label": "_owners",
        "offset": 0,
        "slot": "2",
        "type": "t_mapping(t_uint256,t_address)"
      },
      {
        "astId": 1063,
        "contract": "contracts/MouseNFT.sol:MouseNFT",
        "label": "_balances",
        "offset": 0,
        "slot": "3",
        "type": "t_mapping(t_address,t_uint256)"
      },
      {
        "astId": 1067,
        "contract": "contracts/MouseNFT.sol:MouseNFT",
        "label": "_tokenApprovals",
        "offset": 0,
        "slot": "4",
        "type": "t_mapping(t_uint256,t_address)"
      },
      {
        "astId": 1073,
        "contract": "contracts/MouseNFT.sol:MouseNFT",
        "label": "_operatorApprovals",
        "offset": 0,
        "slot": "5",
        "type": "t_mapping(t_address,t_mapping(t_address,t_bool))"
      },
      {
        "astId": 232,
        "contract": "contracts/MouseNFT.sol:MouseNFT",
        "label": "_owner",
        "offset": 0,
        "slot": "6",
        "type": "t_address"
      },
      {
        "astId": 3958,
        "contract": "contracts/MouseNFT.sol:MouseNFT",
        "label": "s_tokenCount",
        "offset": 0,
        "slot": "7",
        "type": "t_uint256"
      },
      {
        "astId": 3961,
        "contract": "contracts/MouseNFT.sol:MouseNFT",
        "label": "s_isLive",
        "offset": 0,
        "slot": "8",
        "type": "t_bool"
      },
      {
        "astId": 3963,
        "contract": "contracts/MouseNFT.sol:MouseNFT",
        "label": "s_lastTranfer",
        "offset": 0,
        "slot": "9",
        "type": "t_uint256"
      },
      {
        "astId": 3966,
        "contract": "contracts/MouseNFT.sol:MouseNFT",
        "label": "cheeseToken",
        "offset": 0,
        "slot": "10",
        "type": "t_contract(CheeseToken)2861"
      },
      {
        "astId": 3969,
        "contract": "contracts/MouseNFT.sol:MouseNFT",
        "label": "game",
        "offset": 0,
        "slot": "11",
        "type": "t_contract(MouseGame)3935"
      }
    ],
    "types": {
      "t_address": {
        "encoding": "inplace",
        "label": "address",
        "numberOfBytes": "20"
      },
      "t_bool": {
        "encoding": "inplace",
        "label": "bool",
        "numberOfBytes": "1"
      },
      "t_contract(CheeseToken)2861": {
        "encoding": "inplace",
        "label": "contract CheeseToken",
        "numberOfBytes": "20"
      },
      "t_contract(MouseGame)3935": {
        "encoding": "inplace",
        "label": "contract MouseGame",
        "numberOfBytes": "20"
      },
      "t_mapping(t_address,t_bool)": {
        "encoding": "mapping",
        "key": "t_address",
        "label": "mapping(address => bool)",
        "numberOfBytes": "32",
        "value": "t_bool"
      },
      "t_mapping(t_address,t_mapping(t_address,t_bool))": {
        "encoding": "mapping",
        "key": "t_address",
        "label": "mapping(address => mapping(address => bool))",
        "numberOfBytes": "32",
        "value": "t_mapping(t_address,t_bool)"
      },
      "t_mapping(t_address,t_uint256)": {
        "encoding": "mapping",
        "key": "t_address",
        "label": "mapping(address => uint256)",
        "numberOfBytes": "32",
        "value": "t_uint256"
      },
      "t_mapping(t_uint256,t_address)": {
        "encoding": "mapping",
        "key": "t_uint256",
        "label": "mapping(uint256 => address)",
        "numberOfBytes": "32",
        "value": "t_address"
      },
      "t_string_storage": {
        "encoding": "bytes",
        "label": "string",
        "numberOfBytes": "32"
      },
      "t_uint256": {
        "encoding": "inplace",
        "label": "uint256",
        "numberOfBytes": "32"
      }
    }
  }
}